:100000000C9472000C9493000C9493000C94930045
:100010000C9493000C947C020C9457020C94930063
:100020000C9493000C9493000C9493000C94930004
:100030000C9493000C9493000C9493000C949300F4
:100040000C9493000C9493000C9493000C949300E4
:100050000C9493000C9493000C9493000C949300D4
:100060000C9493000C9493000C9493000C949300C4
:100070000C9493000C9493000C9493000C949300B4
:100080000C9493000C9493000C9493000C949300A4
:100090000C9493000C9493000C9493000C94930094
:1000A0000C9493000C9493000C9493000C94930084
:1000B0000C9493000C9493000C9493000C94930074
:1000C0000C9493000C9493000C9493000C94E40310
:1000D0000C9493000C9493000C9493000C94930054
:1000E0000C94930011241FBECFEFD1E2DEBFCDBF31
:1000F00000E00CBF13E0A0E0B2E0E2E1F5E200E0D6
:100100000BBF02C007900D92A23AB107D9F715E0D4
:10011000A2EAB3E001C01D92AE33B107E1F70E943D
:10012000750D0C9487120C94000086E69EE00197F2
:10013000F1F700004098419880E388B9429AEFEFC8
:10014000F7E43197F1F700C000004298E6E6FEE0E0
:100150003197F1F700004098419888B9429AEFEF43
:10016000F7E43197F1F700C000004298E6E6FEE0C0
:100170003197F1F700004098419888B9429A8FEF83
:1001800097E40197F1F700C000004298E6E6FEE030
:100190003197F1F700004098419880E288B9429A7F
:1001A0008FEF97E40197F1F700C00000429808959F
:1001B00098B19F7098B998B1282F207F922B98B949
:1001C00040984198429AEFEFF7E43197F1F700C079
:1001D0000000429898B19F7098B998B18295807F3D
:1001E000892B88B940984198429A8FEF97E40197FC
:1001F000F1F700C00000429808950E94950086E63D
:100200009EE00197F1F7000088E20E94D80081E0AB
:100210000E94D80086E00E94D8008EE00E94D8009C
:1002200080E80E94D800089598B19F7098B998B15D
:10023000282F207F922B98B9409A4198429AEFEF4D
:10024000F7E43197F1F700C00000429898B19F7031
:1002500098B998B18295807F892B88B9409A419846
:10026000429A8FEF97E40197F1F700C0000042989F
:10027000089580E80E94D8000895CF93DF93EC01A1
:100280008881882331F021960E9414018991882366
:10029000D9F7DF91CF910895823079F0833018F447
:1002A0008130C9F405C0833069F08430A1F40FC0F7
:1002B000862F81580E94D8000895862F81540E946D
:1002C000D8000895862F8D560E94D8000895862F55
:1002D0008D520E94D80008950F931F93CF93DF9300
:1002E0008A01E901882311F0662319F40E9439017B
:1002F00002C00E944C01C530D10571F4C80160E113
:1003000077E20E941311CB01C0969093BF048093B3
:10031000BE040E94140103C0C430D105B9F4C80161
:1003200068EE73E00E941311CB017093C5046093D3
:10033000C4046AE070E00E941311C09690933905DE
:10034000809338050E94140181E001C080E0C33031
:10035000D10511F08130B1F4C80164E670E00E946B
:100360001311CB017093C5046093C4046AE070E07C
:100370000E941311C0969093D1048093D0040E94E0
:10038000140181E0C230D10511F08130B1F42AE0CE
:1003900030E0C801B9010E941311CB017093C5046C
:1003A0006093C404B9010E941311C0969093C804CD
:1003B0008093C7040E94140181E0C130D10511F07F
:1003C000813061F4C8016AE070E00E941311C096A8
:1003D00090933705809336050E941401C630D105ED
:1003E0001CF085E40E941401DF91CF911F910F91C1
:1003F0000895259A2D9A0895269A2E9A089587B1E0
:10040000876F87B988B1807888B9089510BA11BA12
:100410001092070110920801089581B18F6081B98F
:1004200082B1807F82B9EAE0F1E0808188618083D7
:10043000EBE0F1E080818861808308956C98749A84
:1004400008956D98759A08953B9A439808956F980A
:10045000779A08950E94F9010E94FC010E94FF0111
:100460000E9406020E940D020E941E020E942102AA
:100470000E9424020E9427020895F894EAE6F0E020
:10048000808182608083EC9A78940895F894EAE6FB
:10049000F0E0808188608083ED9A7894089586B139
:1004A000886088B9089586B1877F88B908951F92BA
:1004B0000F920FB60F9211248F939F93AF93BF9318
:1004C0008091B0049091B104A091B204B091B304B2
:1004D0000196A11DB11D8093B0049093B104A09327
:1004E000B204B093B304BF91AF919F918F910F90DD
:1004F0000FBE0F901F9018951F920F920FB60F927C
:1005000011248F939F93AF93BF938091B4049091E4
:10051000B504A091B604B091B7040196A11DB11D18
:100520008093B4049093B504A093B604B093B70439
:10053000BF91AF919F918F910F900FBE0F901F9021
:100540001895E1E2F1E010828FEF8093250191E0B0
:1005500090932401109229018093280110922B017D
:1005600080932A0110922D0180932C0129EA209377
:1005700020012BE020832CEF2093850090938400B2
:1005800093E0909389008093880090938B008093F0
:100590008A0090938700809386008BEA8093800086
:1005A000109282008CE0809381000895EAE7F0E0E9
:1005B000108210927B0080E280937C0080E880BFF4
:1005C00086E880830895883018F098E090937B0047
:1005D0008770806280937C00EAE7F0E0808180642D
:1005E0008083808184FFFDCF80917900EAE7F0E08D
:1005F00090819061908310927B000895CF93DF9358
:10060000D82FC62F842F0E94E302482F8093C60460
:100610008D2F6C2F50E023E030E00E946C01DF91C1
:10062000CF9108958093280160932A01089592B193
:10063000907F8F70982B92B9089586E00E941703DF
:10064000089589E00E941703089585E00E9417032A
:1006500008958AE00E941703089580E00E9417031E
:1006600008950F931F93CF93BC0180E090E00E9408
:10067000851028E431EE42E850E40E94F10F0E9418
:100680005910DC01CB01A0E0B0E01092B004109250
:10069000B1041092B2041092B3041092B4041092F8
:1006A000B5041092B6041092B704F1E0C0E0409196
:1006B000B0045091B1046091B2047091B304009100
:1006C000B4041091B5042091B6043091B704EF2F13
:1006D000481759076A077B0708F4EC2FEE2349F403
:1006E0004F2F081719072A073B0708F44C2F4423FC
:1006F000F1F20E942D03CF911F910F910895BC013B
:1007000080E090E00E94851025EE30ED4AEA50E44A
:100710000E94F10F0E945910462F572F682F792FF2
:100720001092B0041092B1041092B2041092B3046B
:100730008091B0049091B104A091B204B091B3043F
:10074000481759076A077B0798F70E942D030895F9
:10075000CF93DF93EC010E941D03CE010E947F0323
:10076000DF91CF910895CF93DF93EC010E94210395
:10077000CE010E947F03DF91CF910895CF93DF9345
:10078000EC010E942503CE010E943103DF91CF913D
:100790000895CF93DF93EC010E942903CE010E94BC
:1007A0003103DF91CF910895E1EDF0E010821092D6
:1007B000D00086E08093D2008FE58093D400109221
:1007C000D50088E9808308951F920F920FB60F928B
:1007D0000BB60F9211242F933F934F935F936F9318
:1007E0007F938F939F93AF93BF93EF93FF93E6ED28
:1007F000F0E080818093CE0480838CE494E06EEC02
:1008000074E00E947412FF91EF91BF91AF919F919C
:100810008F917F916F915F914F913F912F910F90A9
:100820000BBE0F900FBE0F901F901895109289006D
:10083000682F70E080E090E00E9485102BE734E1A3
:100840004EEE5FE30E94F10F20E030E04CE052E416
:100850000E948D0F0E945910609388000895109295
:100860008B00682F70E080E090E00E9485102BE7FD
:1008700034E14EEE5FE30E94F10F20E030E04CE007
:1008800052E40E948D0F0E94591060938A000895CF
:1008900083E0809389008FEF80938800089583E040
:1008A00080938B008FEF80938A000895F8940E94C4
:1008B0002A020E9495000E94FD000E94D4030E941B
:1008C000D6020E94A1020E943D020E944602789434
:1008D0000895FC01DB01808191812D913C9111975C
:1008E000821B930B1AF4909581959F4F228133813F
:1008F00012964D915C911397241B350B1AF4309589
:1009000021953F4F820F931F0895AF92BF92CF92D0
:10091000DF92EF92FF920F931F93CF93DF935C01CF
:10092000062FE72E84E090E00E942711C82ED92ED2
:10093000C02FDE2D0F2EF4E6EF2EFF24F02D00E069
:1009400010E0C501BE010E9469048E159F0554F494
:1009500028813981F601318320832A813B813383C9
:1009600022837C010F5F1F4F24960430110549F745
:100970008C2D9D2DDF91CF911F910F91FF90EF90C6
:10098000DF90CF90BF90AF900895CF93DF93EC01AD
:1009900080910302909104029C01220F331F820F69
:1009A000931F8E559C4F0E94561268817981FC01DD
:1009B000E295F295F07FFE27E07FFE27E550FE4F9F
:1009C00040E050E0808191818617970751F4828141
:1009D00093812A813B818217930719F4842F952FE5
:1009E00006C04F5F5F4F34964430510559F7DF9191
:1009F000CF9108958C3411F580E50E942F0489EB86
:100A00000E9416048FEF9FEFA3E281509040A04018
:100A1000E1F700C0000084EB0E942F048FEF9FEFEE
:100A2000A3E281509040A040E1F700C000008AE5B9
:100A30000E9416048AE50E942F04089584E60E940D
:100A40002F0485E00E9416048FEF9FEFA3E28150F0
:100A50009040A040E1F700C0000080E00E942F0419
:100A60008FEF9FEFA3E281509040A040E1F700C0DC
:100A700000008AE50E9416048AE50E942F0408956A
:100A80006115710509F446C0823511F580E00E94B8
:100A90002F0488E20E9416048FEF9FEFA3E281509B
:100AA0009040A040E1F700C0000088E70E942F04BA
:100AB0008FEF9FEFA3E281509040A040E1F700C08C
:100AC00000008AE50E942F048AE50E94160408951A
:100AD00084EB0E942F0486E90E9416048FEF9FEF9B
:100AE000A3E281509040A040E1F700C000008CE3F9
:100AF0000E942F048FEF9FEFA3E281509040A0400F
:100B0000E1F700C000008AE50E942F048AE50E94F8
:100B100016040895823511F580E00E942F0485E0C7
:100B20000E9416048FEF9FEFA3E281509040A040F7
:100B3000E1F700C0000085E50E942F048FEF9FEFD2
:100B4000A3E281509040A040E1F700C000008AE598
:100B50000E942F048AE50E941604089584EB0E94E7
:100B60002F0489EB0E9416048FEF9FEFA3E28150C0
:100B70009040A040E1F700C000008FE50E942F04E4
:100B80008FEF9FEFA3E281509040A040E1F700C0BB
:100B900000008AE50E942F048AE50E941604089549
:100BA00083E00E94E3028093BA0482E00E94E302A1
:100BB0008093B90481E00E94E3028093B804089511
:100BC000CF93C82F1092BB046115710509F09EC028
:100BD00080910102909102022091BA0430E08217C4
:100BE00093076CF02091B90430E08217930774F0FA
:100BF0002091B80430E08217930744F40FC120918C
:100C0000B90430E0821793070CF00DC181E08093A6
:100C1000BB04C63419F40E941D0302C00E942103C4
:100C20008091C9046091CF040E9412038091010257
:100C3000909102022091BA0430E082179307C4F128
:100C40002091B90430E0821793070CF4FBC0209187
:100C5000B80430E0821793070CF0F4C08091BB0415
:100C6000882309F0EFC081E08093BB04C63459F4B7
:100C70000E941D038091C9046091CF046253825E7B
:100C80000E9412030AC00E9421038091C90460914E
:100C9000CF04625E82530E94120380910102909100
:100CA00002022091BA0430E0821793070CF0CAC008
:100CB0002091B90430E0821793070CF4C3C020914F
:100CC000B80430E0821793070CF4BCC08091BB04D9
:100CD000882309F0B7C081E08093BB04C63459F47F
:100CE0000E941D038091C9046091CF04625E82530B
:100CF0000E941203A7C00E9421038091C904609141
:100D0000CF046253825E0E9412039CC08091010254
:100D1000909102022091BA0430E0821793076CF0A0
:100D20002091B90430E08217930774F02091B80441
:100D300030E08217930744F480C02091B90430E07A
:100D4000821793070CF074C081E08093BB04C63413
:100D500019F40E941D0302C00E9421038FEF6FEF60
:100D60000E94120380910102909102022091BA0424
:100D700030E0821793077CF12091B90430E08217AC
:100D800093070CF45FC02091B80430E082179307FA
:100D90000CF058C08091BB04882309F053C081E057
:100DA0008093BB04C63439F40E941D038FEF6AEAB6
:100DB0000E94120306C00E9421038AEA6FEF0E947C
:100DC000120380910102909102022091BA0430E056
:100DD00082179307BCF52091B90430E0821793077E
:100DE0008CF12091B80430E0821793075CF1809178
:100DF000BB04882339F581E08093BB04C63439F401
:100E00000E941D038AEA6FEF0E9412031BC00E941A
:100E100021038FEF6AEA0E94120314C0809101023D
:100E2000909102020DCF809101029091020240CF79
:100E30008091010290910202CECF809101029091A7
:100E400002029ACFCF910895CF92DF92EF92FF9254
:100E50000F931F93CF93C62F8A01BC0180E090E0CF
:100E60000E94851025EE30ED4AEA50E40E94F10F11
:100E70000E945910C62ED72EE82EF92E1092B004DB
:100E80001092B1041092B2041092B3041092B40400
:100E90001092B5041092B6041092B7040E94D005C7
:100EA0008091B0049091B104A091B204B091B304C8
:100EB000C816D906EA06FB0690F08091B40490911A
:100EC000B504A091B604B091B704C816D906EA06D5
:100ED000FB0628F08C2FB8010E94E005DFCF0E94AE
:100EE0002D03CF911F910F91FF90EF90DF90CF9046
:100EF00008951F93CF93DF93182FEB010E94D00525
:100F000060910A02665F862F0E9412031C3421F44E
:100F1000CE010E94BE0303C0CE010E94C9036091AE
:100F20000A026A50862F0E9412038FEF9FE7ADE0FE
:100F300081509040A040E1F700C00000DF91CF91C8
:100F40001F91089590910902981709F4BDC09E342D
:100F500071F5873549F48CE46AE570E00E94790701
:100F600087E5809309020895853449F482E56AE5AE
:100F700070E00E94790785E4809309020895833523
:100F800009F074C08091070290910802009731F433
:100F900082E564EB70E00E94790705C08CE464EBA5
:100FA00070E00E94790783E58093090208959335E4
:100FB00071F58E34A9F48091070290910802009790
:100FC00031F48CE464EB70E00E94790705C082E59F
:100FD00064EB70E00E9479078EE480930902089523
:100FE000853449F48CE46AE570E00E94790785E471
:100FF000809309020895873509F066C082E56AE5A5
:1010000070E00E94790787E580930902089595347E
:1010100069F58E3449F48CE46AE570E00E94790742
:101020008EE48093090208958735A9F48091050222
:1010300090910602009731F482E564EB70E00E9423
:10104000790705C08CE464EB70E00E94790787E5BE
:101050008093090208958335B9F582E56AE570E069
:101060000E94790783E5809309020895973561F519
:101070008E3449F482E56AE570E00E9479078EE4D7
:101080008093090208958534A9F480910502909116
:101090000602009731F48CE464EB70E00E9479075B
:1010A00005C082E564EB70E00E94790785E48093D7
:1010B00009020895833541F48CE46AE570E00E94EA
:1010C000790783E5809309020895009739F48EE04B
:1010D00091E066E441E050E00E9424070E94D005C0
:1010E00007C00E94D00586E460E070E00E94E00541
:1010F00080910102909102022091BA0430E082179F
:1011000093073CF42091B90430E08217930734F53B
:1011100013C02091B90430E08217930714F720918F
:10112000B80430E082179307E4F606C02091B804B3
:1011300030E082179307ACF60E944F028FEF9FEFCB
:10114000A8E081509040A040E1F700C000000E945C
:10115000530282E390E00E94A80308958217930748
:101160000CF0BFCFE3CF0F931F93CF93DF938C018E
:101170002091070230910802FC018281938182173D
:101180009307A4F4C7E0D2E087E50E94A20780E0BD
:1011900090E00E94650888819981019799838883EE
:1011A000F801228133812817390774F3209107024F
:1011B00030910802F8018281938128173907A4F43D
:1011C000C7E0D2E085E40E94A20780E090E00E94A0
:1011D000650888819981019699838883F801228125
:1011E00033818217930774F3DF91CF911F910F9191
:1011F00008950F931F93CF93DF938C0120910502E5
:1012000030910602FC018081918182179307A4F43A
:10121000C5E0D2E083E50E94A20780E090E00E9452
:10122000650888819981019799838883F8012081D5
:1012300031812817390774F3209105023091060295
:10124000F8018081918128173907A4F4C5E0D2E024
:101250008EE40E94A20780E090E00E9465088881E9
:101260009981019699838883F801208131818217C1
:10127000930774F3DF91CF911F910F910895CF934E
:10128000DF93EC018091050290910602288139815B
:1012900028173907ECF440910702509108026A813F
:1012A0007B8164177507A4F4809109028E3411F0D4
:1012B000873539F4CE010E94B308CE010E94F908A7
:1012C00094C0CE010E94F908CE010E94B3088DC0DF
:1012D00082179307ECF440910702509108026A814B
:1012E0007B8146175707A4F480910902833511F0DA
:1012F000853439F4CE010E94B308CE010E94F9086A
:1013000074C0CE010E94F908CE010E94B3086DC0DE
:1013100028173907ECF440910702509108026A81BE
:101320007B8146175707A4F4809109028E3411F08F
:10133000853439F4CE010E94B308CE010E94F90829
:1013400054C0CE010E94F908CE010E94B3084DC0DE
:101350008217930724F540910702509108026A8191
:101360007B8164177507A4F480910902833511F01D
:10137000873539F4CE010E94B308CE010E94F908E6
:1013800034C0CE010E94F908CE010E94B3082DC0DE
:101390004617570721F4CE010E94F90826C02817E6
:1013A00039076CF440910702509108026A817B81F1
:1013B0004617570721F4CE010E94F90816C082177C
:1013C000930799F420910702309108028A819B814A
:1013D0008217930724F4CE010E94B30806C0281791
:1013E00039071CF4CE010E94B308DF91CF91089514
:1013F0000F931F93CF93DF93EC0184E090E00E9462
:101400002711082F192FBE0162957295707F7627DC
:10141000607F762765507E4F85E092E00E948504CC
:10142000FC0180819181A281B381F8018083918345
:10143000A283B383C8010E943F09DF91CF911F911E
:101440000F910895CF93DF9384E090E00E942711DD
:10145000C82FD92F809103029091040201969C011C
:10146000220F331F820F931F8E559C4F0E945612DE
:10147000BC0162957295707F7627607F76276550F4
:101480007E4F85E092E00E948504FC01808191817D
:10149000A281B38188839983AA83BB83809105024B
:1014A000909106022091070230910802821793075B
:1014B00081F08130910521F42630310509F491C085
:1014C0008630910509F0BCC02130310509F0EBC030
:1014D0005DC08130910559F580910902833591F401
:1014E0008DE290E00E94BE0382E50E94FA048DE244
:1014F00090E00E94BE0385E48093090282E5809318
:10150000000268C1873509F065C18DE290E00E9454
:10151000C9038CE40E94FA048DE290E00E94C903A2
:101520008EE4809309028CE48093000253C18630DC
:10153000910509F04FC1809109028E3491F48DE23A
:1015400090E00E94BE0382E50E94FA048DE290E0E2
:101550000E94BE0387E58093090282E58093000222
:1015600039C1853409F036C18DE290E00E94C9038B
:101570008CE40E94FA048DE290E00E94C90383E5A6
:10158000809309028CE48093000224C180910902B7
:10159000873591F48DE290E00E94BE0382E50E94BF
:1015A000FA048DE290E00E94BE0383E58093090275
:1015B00082E5809300020EC18E3409F00BC18DE2EA
:1015C00090E00E94C9038CE40E94FA048DE290E04E
:1015D0000E94C90385E4809309028CE48093000291
:1015E000F9C02630310509F0F5C080910902853433
:1015F00091F48DE290E00E94BE0382E50E94FA041D
:101600008DE290E00E94BE038EE48093090282E5A1
:1016100080930002DFC0833509F0DCC08DE290E0EA
:101620000E94C9038CE40E94FA048DE290E00E94BB
:10163000C90387E5809309028CE480930002CAC045
:101640002130310581F5209109022E3439F48CE4E2
:101650000E94FA048CE480930002BCC0233539F464
:1016600082E50E94FA0482E580930002B3C0273528
:1016700009F0B0C0288139818217930754F48EE4B1
:101680000E94A2078CE40E94FA048CE4809300027A
:10169000A1C083E50E94A20782E50E94FA0482E5C8
:1016A0008093000297C08130910581F580910902F5
:1016B000873539F48CE40E94FA048CE480930002AC
:1016C00089C0853439F482E50E94FA0482E580936A
:1016D000000280C0833509F07DC08A819B81281774
:1016E000390754F485E40E94A20782E50E94FA04B7
:1016F00082E5809300026EC087E50E94A2078CE419
:101700000E94FA048CE48093000264C02630310504
:1017100081F520910902233539F48CE40E94FA0402
:101720008CE48093000256C02E3439F482E50E9486
:10173000FA0482E5809300024DC0253409F04AC0C6
:10174000288139818217930754F48EE40E94A207FE
:1017500082E50E94FA0482E5809300023BC083E5A3
:101760000E94A2078CE40E94FA048CE48093000299
:1017700031C08630910571F580910902853439F4C4
:101780008CE40E94FA048CE48093000223C0873525
:1017900039F482E50E94FA0482E5809300021AC0BF
:1017A0008E34C1F48A819B812817390754F485E46B
:1017B0000E94A2078CE40E94FA048CE48093000249
:1017C00009C087E50E94A20782E50E94FA0482E52B
:1017D00080930002DF91CF9108950F931F93CF93D1
:1017E000DF9380910302909104029C01220F331F2A
:1017F000820F931F8E559C4F0E945612EC01219729
:1018000085E092E00E94C5048C01809109028E342B
:10181000C9F40115110549F4809100028C3409F0D6
:101820005DC085E40E94A207D3C00130110509F014
:1018300055C080910002823509F0DFC087E50E9423
:10184000A207B1C08335C1F40230110549F480917B
:1018500000028C3409F042C087E50E94A207A3C0B1
:1018600003301105D9F580910002823509F0C5C019
:1018700085E40E94A20797C08735B9F401301105AD
:1018800041F4809100028C3449F58EE40E94A20755
:101890008AC00230110511F580910002823509F0ED
:1018A000ACC083E50E94A2077EC08534B9F401155F
:1018B000110541F480910002823581F48EE40E948A
:1018C000A20786C00330110549F4809100028C34D0
:1018D00009F093C083E50E94A20765C0FE01EE0FE8
:1018E000FF1FE65EFB4FC1E0D0E080819181009751
:1018F00011F4C0E0D0E086E990E066E441E050E019
:101900000E9424070115110589F4809109028E3483
:1019100029F482E5BE010E94400584C0853409F0A7
:1019200081C08CE4BE010E9440057CC001301105DD
:1019300089F480910902873529F482E5BE010E946D
:10194000400570C08E3409F06DC08CE4BE010E9469
:10195000400568C00230110589F480910902833581
:1019600029F482E5BE010E9440055CC0873509F07C
:1019700059C08CE4BE010E94400554C003301105DB
:1019800009F050C080910902853429F482E5BE0136
:101990000E94400547C0833509F044C08CE4BE0175
:1019A0000E9440053FC0FE01EE0FFF1FE65EFB4FA9
:1019B000C1E0D0E080819181009711F4C0E0D0E0D7
:1019C00086E990E066E441E050E00E942407AECF53
:1019D000FE01EE0FFF1FE65EFB4FC1E0D0E080810D
:1019E0009181009711F4C0E0D0E086E990E066E4D0
:1019F00041E050E00E94240788CFFE01EE0FFF1F58
:101A0000E65EFB4FC1E0D0E080819181009711F448
:101A1000C0E0D0E086E990E066E441E050E00E945A
:101A2000240784CFDF91CF911F910F9108950F93D9
:101A30001F93CF93DF93CDB7DEB7C85CD0400FB60E
:101A4000F894DEBF0FBECDBF20914C042A30B1F018
:101A5000ADE4B4E080E090E000E010E0203241F03E
:101A6000E5E6F0E0EC0FFD1FE80FF91F208301967B
:101A70000F5F1F4F2D912A3089F702C000E010E060
:101A800081E061E00E944C01CE018B599F4F0E9482
:101A90003D01F801E45BFB4F2181233291F0F80115
:101AA000E25BFB4F80E090E0203241F0A1E0B0E04B
:101AB000AC0FBD1FA80FB91F2C93019621912332A3
:101AC00099F782E061E00E944C01CE0101960E94EC
:101AD0003D01C853DF4F0FB6F894DEBF0FBECDBF38
:101AE000DF91CF911F910F9108954F925F926F9266
:101AF0007F928F929F92AF92BF92CF92DF92EF929E
:101B0000FF920F931F93CF93DF9300D00F92CDB727
:101B1000DEB70E9456048CB18F678F37E1F72091B2
:101B20004C042A3099F4A0E0B0E041E050E060E0DD
:101B300070E0EE24FF240CE414E0AA24BB240F2E52
:101B4000FEEDCF2EF3E0DF2EF02D31C060E070E02F
:101B5000A0E0B0E040E050E00F2EF2EAEF2EF3E01C
:101B6000FF2EF02DCC24DD240CE414E02C3229F4DB
:101B70004F5F5F4F1196B6010DC0CD01880F991FC1
:101B80008A0F9B1F860F971F8E0D9F1DFC012083C0
:101B90006F5F7F4F4F5F5F4FF801E40FF51F2081AC
:101BA0002A3021F7BB232CF14F5F5F4FC0CFF801E4
:101BB000E40FF51F20812C3211F0203239F44F5FF1
:101BC0005F4F0894E11CF11CB5010DC0C701880FDF
:101BD000991F8E0D9F1D860F971F8C0D9D1DFC015B
:101BE00020836F5F7F4F4F5F5F4FAE15BF05FCF6E1
:101BF00002C0EE24FF242CED20930A0280E090E046
:101C0000ACE5B3E48093C0049093C104A093C204F4
:101C1000B093C3048093CA049093CB04A093CC04E4
:101C2000B093CD042093C9042093CF048CED6CEDC8
:101C30000E9412038EE48093090281E090E0909369
:101C40000602809305029093080280930702109287
:101C500004021092030280E590E00E94A8038091A4
:101C6000030290910402FC01EE0FFF1FE80FF91F21
:101C7000E252FC4F2181213309F084C0FC01EE0FB8
:101C8000FF1F8E0F9F1FFC01E252FC4F80818134A9
:101C900009F078C08DE290E00E94BE038CE40E94BF
:101CA000FA048DE290E00E94C903809103029091B2
:101CB00004029C01220F331F820F931F8E559C4FED
:101CC0000E9456128130910511F00E94F8090E947D
:101CD000ED0B970121503040809103029091040256
:101CE0002817390799F181E090E00E9465088091FA
:101CF00009028E3451F480910502909106020196FA
:101D0000909306028093050221C0833551F480919F
:101D100005029091060201979093060280930502B6
:101D200015C0873551F48091070290910802019700
:101D3000909308028093070209C080910702909156
:101D40000802019690930802809307020091030213
:101D500010910402C801880F991F800F911F8E55A2
:101D60009C4F0E945612FC01EE0FFF1FE85EFB4FD6
:101D700081E090E0918380830F5F1F4F10930402F6
:101D80000093030280910302909104028E159F0537
:101D90000CF09AC00F2EFEEDCF2EF3E0DF2EF02DCB
:101DA00057010894A108B1080F2EF7E06F2EF2E05A
:101DB0007F2EF02D0F2EF5E04F2EF2E05F2EF02D4E
:101DC0000F2EFAE18F2EF4E09F2EF02D9C01220FB2
:101DD000331F820F931FF601E80FF91F818190E0F6
:101DE000C0979A838983808190E0805490409C833F
:101DF0008B83CE0101960E943F090E94220A8091A6
:101E00000302909104029C01220F331F820F931F43
:101E10008E559C4F0E9456120E94F8090E94ED0BAD
:101E20008091030290910402A816B90659F181E04D
:101E300090E00E946508809109028E3449F4D20135
:101E40008D919C911197019611969C938E931AC037
:101E5000833539F4F20180819181019791838083E8
:101E600011C0873549F4D3018D919C911197019749
:101E700011969C938E9306C0F30180819181019607
:101E8000918380830091030210910402C801880F9E
:101E9000991F800F911F8E559C4F0E9456120197DB
:101EA000880F991F880D991D21E030E0DC01119603
:101EB0003C932E93C80101969093040280930302F1
:101EC0008E159F050CF482CF0E944F028FEF9FEF7B
:101ED000A0EE81509040A040E1F700C000000E94B9
:101EE00053020E9448040E944F0480E090E00F904B
:101EF0000F900F900F90DF91CF911F910F91FF9056
:101F0000EF90DF90CF90BF90AF909F908F907F9099
:101F10006F905F904F9008955058BB27AA270ED01E
:101F200048C139D130F03ED120F031F49F3F11F457
:101F30001EF42EC10EF4E095E7FB24C1E92F4AD12F
:101F400080F3BA17620773078407950718F071F4D6
:101F50009EF562C10EF4E0950B2EBA2FA02D0B0159
:101F6000B90190010C01CA01A0011124FF27591BDE
:101F700099F0593F50F4503E68F11A16F040A22FE4
:101F8000232F342F4427585FF3CF46953795279555
:101F9000A795F0405395C9F77EF41F16BA0B620B54
:101FA000730B840BBAF09150A1F0FF0FBB1F661F9B
:101FB000771F881FC2F70EC0BA0F621F731F841FDE
:101FC00048F4879577956795B795F7959E3F08F004
:101FD000B3CF9395880F08F09927EE0F97958795C3
:101FE00008950CD0E6C0DED040F0D5D030F021F41A
:101FF0005F3F19F0C7C0511110C1CAC0EBD098F3B0
:102000009923C9F35523B1F3951B550BBB27AA2779
:1020100062177307840738F09F5F5F4F220F331FEB
:10202000441FAA1FA9F333D00E2E3AF0E0E830D0B7
:1020300091505040E695001CCAF729D0FE2F27D0BA
:10204000660F771F881FBB1F261737074807AB0788
:10205000B0E809F0BB0B802DBF01FF2793585F4FFD
:102060002AF09E3F510568F08DC0D7C05F3FECF36A
:10207000983EDCF3869577956795B795F7959F5FC2
:10208000C9F7880F911D9695879597F90895E1E016
:10209000660F771F881FBB1F621773078407BA0775
:1020A00020F0621B730B840BBA0BEE1F88F7E095D0
:1020B000089598D088F09F5790F0B92F9927B7517D
:1020C000A0F0D1F0660F771F881F991F1AF0BA95FC
:1020D000C9F712C0B13081F09FD0B1E008959CC023
:1020E000672F782F8827B85F39F0B93FCCF38695F2
:1020F00077956795B395D9F73EF49095809570954F
:1021000061957F4F8F4F9F4F0895E89409C097FBCB
:102110003EF490958095709561957F4F8F4F9F4FBE
:102120009923A9F0F92F96E9BB279395F695879502
:1021300077956795B795F111F8CFFAF4BB0F11F4C5
:1021400060FF1BC06F5F7F4F8F4F9F4F16C088236C
:1021500011F096E911C0772321F09EE8872F762FA2
:1021600005C0662371F096E8862F70E060E02AF0E3
:102170009A95660F771F881FDAF7880F96958795CF
:1021800097F9089597F99F6780E870E060E00895F7
:102190009FEF80EC089500240A941616170618067F
:1021A0000906089500240A9412161306140605065B
:1021B0000895092E0394000C11F4882352F0BB0FEC
:1021C00040F4BF2B11F460FF04C06F5F7F4F8F4F4F
:1021D0009F4F089557FD9058440F551F59F05F3F8A
:1021E00071F04795880F97FB991F61F09F3F79F039
:1021F00087950895121613061406551FF2CF4695BB
:10220000F1DF08C0161617061806991FF1CF86953C
:102210007105610508940895E894BB276627772720
:10222000CB0197F90895AA1BBB1B51E107C0AA1F58
:10223000BB1FA617B70710F0A61BB70B881F991F67
:102240005A95A9F780959095BC01CD010895CF933B
:10225000DF93AC018230910510F442E050E0E09150
:102260003C05F0913D0520E030E0A0E0B0E024C066
:102270008081918184179507D0F08417950771F4B8
:1022800082819381109729F013969C938E931297D5
:102290002CC090933D0580933C0527C02115310546
:1022A00019F08217930718F49C01BD01EF01928188
:1022B0008381DF01E92FF82F3097D1F62115310501
:1022C000F9F0C901841B950B8430910580F48A8153
:1022D0009B816115710521F0FB019383828304C00A
:1022E00090933D0580933C05FE01329642C0FE016D
:1022F000E80FF91F4193519302979983888339C05E
:1023000080913A0590913B05009741F480919D039F
:1023100090919E0390933B0580933A0520919B03F7
:1023200030919C032115310541F42DB73EB78091C2
:102330009F039091A003281B390BE0913A05F0917F
:102340003B05E217F30798F42E1B3F0B24173507C4
:1023500070F0CA0102962817390748F08E0F9F1FA8
:1023600090933B0580933A054193519302C0E0E07E
:10237000F0E0CF01DF91CF9108950F931F93CF939A
:10238000DF939C01009709F48CC0DC01129713962F
:102390001C921E92129760913C0570913D0561154B
:1023A000710589F48D919C911197820F931F209153
:1023B0003A0530913B052817390769F5B0933B057D
:1023C000A0933A056EC0FB0140E050E001C0FC0163
:1023D000EA17FB0730F482819381AF010097B9F7C8
:1023E0001FC0E9012297FB83EA8308811981C90193
:1023F000800F911F8E179F0759F480819181800F64
:10240000911F029699838883828193819B838A831B
:102410004115510529F4B0933D05A0933C0541C0F9
:10242000FA01B383A283C191D191EC0FFD1FAE17C6
:10243000BF0781F4F901929182918C0F9D1F029642
:10244000DA0111969C938E938281938113969C93CB
:102450008E931297E0E0F0E002C0FB01BC01DB01CB
:1024600012968D919C9113970097B9F7CB01029624
:102470002D913C911197820F931F20913A05309135
:102480003B052817390769F4309729F410923D0568
:1024900010923C0502C01382128270933B05609338
:1024A0003A05DF91CF911F910F910895FC01882784
:1024B0009927E89421912032E9F3293010F02E3049
:1024C000C8F32B3241F02D3239F4689404C00E94D5
:1024D0007F12820F911D219120532A30C0F31EF4E8
:1024E000909581959F4F0895FB01DC010D90002090
:1024F000E9F7119701900D920020E1F708957AE035
:10250000979F902D879F802D910D11240895F89409
:02251000FFCFFB
:102512004E0F00FFFFFFFFFFFF4E7F010001000192
:10252200000200020002000200010001000200019C
:102532000003000200030002000200010003000188
:102542000004000200040002000300010004000174
:102552000005000200050002000400010005000160
:10256200000600020006000200050002000100024F
:102572000002000300020003000100020002000248
:102582000003000300030003000200020003000234
:102592000004000300040003000300020004000220
:1025A200000500030005000300040002000500020C
:1025B20000060003000600030005000300010003FB
:1025C20000020004000200040001000300020003F4
:1025D20000030004000300040002000300030003E0
:1025E20000040004000400040003000300040003CC
:1025F20000050004000500040004000300050003B8
:1026020000060004000600040005000400010004A6
:10261200000200050002000500010004000200049F
:10262200000300050003000500020004000300048B
:102632000005000500040005000300040004000476
:102642000005000500050005000400040005000463
:102652000006000500060005000500050001000552
:10266200000200060002000600010005000200054B
:102672000003000600030006000200050003000537
:102682000004000600040006000300050004000523
:10269200000500060005000600040005000500050F
:1026A200000600060006000600050000003E0520A8
:0226B200000026
:00000001FF
