:1000000071C0000081C000007FC000007DC0000002
:100010007BC00000CCC00000A5C0000075C000007F
:1000200073C0000071C000006FC000006DC0000010
:100030006BC0000069C0000067C0000065C0000020
:1000400063C0000061C000005FC000005DC0000030
:100050005BC0000059C0000057C0000055C0000040
:1000600053C0000051C000004FC000004DC0000050
:100070004BC0000049C0000047C0000045C0000060
:1000800043C0000041C000003FC000003DC0000070
:100090003BC0000039C0000037C0000035C0000080
:1000A00033C0000031C000002FC000002DC0000090
:1000B0002BC0000029C0000027C0000025C00000A0
:1000C00023C0000021C000001FC000001DC00000B0
:1000D0001BC0000019C0000017C0000015C00000C0
:1000E00013C0000011241FBECFEFD1E2DEBFCDBF91
:1000F00000E00CBF22E0A0E0B2E001C01D92A830F9
:10010000B207E1F7CAD0F5C17BCF81B18F6081B969
:1001100082B1807F82B9EAE0F1E0808188618083EA
:10012000EBE0F1E080818861808308956C98749A97
:1001300008956D98759A0895E8DFF8DFFACF08956D
:10014000F894EAE6F0E0808182608083EC9A78940B
:100150000895F894EAE6F0E0808188608083ED9A63
:10016000789408951F920F920FB60F9211248F93D7
:100170009F93AF93BF938091000290910102A09151
:100180000202B09103020196A11DB11D80930002ED
:1001900090930102A0930202B0930302BF91AF912A
:1001A0009F918F910F900FBE0F901F9018951F92E7
:1001B0000F920FB60F9211248F939F93AF93BF931B
:1001C0008091040290910502A0910602B09107026D
:1001D0000196A11DB11D8093040290930502A09386
:1001E0000602B0930702BF91AF919F918F910F903C
:1001F0000FBE0F901F90189592B1907F8F70982B23
:1002000092B9089586E0F8CF089589E0F5CF089572
:1002100080E0F2CF08950F931F93BC0180E090E03F
:10022000DAD025EE30ED4AEA50E441D0A8D0109261
:100230000002109201021092020210920302E6E6FE
:10024000FEE03197F1F700000091000210910102E9
:100250002091020230910302601771078207930711
:1002600070F7D6DF1F910F910895CF93DF93EC01C4
:10027000C9DFCE01D0DFDF91CF910895CF93DF9317
:10028000EC01C3DFCE01C7DFDF91CF910895F89471
:1002900053DF56DF5EDF78940895F9DF8CE291E05A
:1002A000E4DF8CE291E0EADF80E090E008950CD09A
:1002B000E6C0DED040F0D5D030F021F45F3F19F039
:1002C000C7C0511110C1CAC0EBD098F39923C9F32C
:1002D0005523B1F3951B550BBB27AA27621773074C
:1002E000840738F09F5F5F4F220F331F441FAA1F00
:1002F000A9F333D00E2E3AF0E0E830D091505040C0
:10030000E695001CCAF729D0FE2F27D0660F771F6D
:10031000881FBB1F261737074807AB07B0E809F04F
:10032000BB0B802DBF01FF2793585F4F2AF09E3FE4
:10033000510568F08DC0D7C05F3FECF3983EDCF309
:10034000869577956795B795F7959F5FC9F7880F5D
:10035000911D9695879597F90895E1E0660F771FAF
:10036000881FBB1F621773078407BA0720F0621B40
:10037000730B840BBA0BEE1F88F7E095089598D0A5
:1003800088F09F5790F0B92F9927B751A0F0D1F07E
:10039000660F771F881F991F1AF0BA95C9F712C008
:1003A000B13081F09FD0B1E008959CC0672F782FC5
:1003B0008827B85F39F0B93FCCF386957795679574
:1003C000B395D9F73EF490958095709561957F4FE0
:1003D0008F4F9F4F0895E89409C097FB3EF4909586
:1003E0008095709561957F4F8F4F9F4F9923A9F00E
:1003F000F92F96E9BB279395F6958795779567959D
:10040000B795F111F8CFFAF4BB0F11F460FF1BC0E0
:100410006F5F7F4F8F4F9F4F16C0882311F096E973
:1004200011C0772321F09EE8872F762F05C0662321
:1004300071F096E8862F70E060E02AF09A95660FDA
:10044000771F881FDAF7880F9695879597F9089593
:1004500097F99F6780E870E060E008959FEF80EC77
:10046000089500240A94161617061806090608951A
:1004700000240A9412161306140605060895092E80
:100480000394000C11F4882352F0BB0F40F4BF2BEF
:1004900011F460FF04C06F5F7F4F8F4F9F4F08952F
:1004A00057FD9058440F551F59F05F3F71F0479525
:1004B000880F97FB991F61F09F3F79F0879508950A
:1004C000121613061406551FF2CF4695F1DF08C029
:1004D000161617061806991FF1CF86957105610546
:1004E00008940895E894BB2766277727CB0197F9EE
:0604F0000895F894FFCF0F
:00000001FF
